:020000040800F2
:100000000004002045010008A9030008ED020008D3
:10001000A50300088D010008190500080000000074
:10002000000000000000000000000000CD030008F8
:100030009101000800000000AB030008B5040008AF
:100040005F0100085F0100085F0100085F01000810
:100050005F0100085F0100085F0100085F01000800
:100060005F0100085F0100085F0100085F010008F0
:100070005F0100085F0100085F0100085F010008E0
:100080005F0100085F0100085F0100085F010008D0
:100090005F0100085F0100085F0100085F010008C0
:1000A0005F0100085F0100085F0100085F010008B0
:1000B0005F0100085F0100085F0100085F010008A0
:1000C0005F0100085F0100085F0100085F01000890
:1000D0005F0100085F0100085F0100085F01000880
:1000E0005F0100085F0100085F0100085F01000870
:1000F0005F0100085F0100085F0100085F01000860
:100100005F0100085F0100085F0100085F0100084F
:100110005F0100085F0100085F0100085F0100083F
:100120005F0100085F0100085F0100085F0100082F
:10013000DFF80CD000F018F8004800473D05000833
:10014000000400200648804706480047FEE7FEE717
:10015000FEE7FEE7FEE7FEE7FEE7FEE7FEE7FEE777
:10016000B904000831010008064C074D06E0E068BC
:1001700040F0010394E8070098471034AC42F6D3EE
:10018000FFF7DAFF7C0500088C05000800BFFEE7DA
:10019000704701B502E00098401E009000980028CA
:1001A000F9D108BD2DE9F0410246002500260020C6
:1001B00000230024002791F803C00CF00F0591F8EC
:1001C00003C01CF0100F03D091F802C04CEA0505E3
:1001D00091F800C0BCF1000F31D0146800202BE072
:1001E0004FF0010C0CFA00F3B1F800C00CEA030662
:1001F0009E4220D183004FF00F0C0CFA03F7BC4352
:1002000005FA03FC4CEA040491F803C0BCF1280F82
:1002100006D14FF0010C0CFA00FCC2F814C00AE041
:1002200091F803C0BCF1480F05D14FF0010C0CFA56
:1002300000FCC2F810C0401C0828D1D31460B1F8EB
:1002400000C0BCF1FF0F34DD546800202EE000F147
:10025000080C4FF0010808FA0CF3B1F800C00CEAE2
:1002600003069E4221D183004FF00F0C0CFA03F7D6
:10027000BC4305FA03FC4CEA040491F803C0BCF14A
:10028000280F05D100F1080C08FA0CF8C2F8148008
:1002900091F803C0BCF1480F07D100F1080C4FF0F2
:1002A000010808FA0CF8C2F81080401C0828CED3C8
:1002B0005460BDE8F0810246002093680B4201D0F3
:1002C000012000E00020704702460020D3680B4266
:1002D00001D0012000E000207047416170470161BA
:1002E00070470AB1016100E04161704700BFFEE75D
:1002F00008B50121042000F059F80120ADF80000F4
:1003000048208DF8030069460148FFF74BFF08BD00
:100310000008014070B504460D4629462046FFF707
:10032000CAFF012814D14FF47A70FFF732FF294633
:100330002046FFF7C0FF012808D100BF294620460C
:10034000FFF7B9FF0128F9D0012070BD0020FCE7BC
:100350000020FAE708B50121882000F027F84FF4C3
:10036000C070ADF8000010208DF8030003208DF858
:10037000020069460948FFF715FF0120ADF80000AB
:1003800069460748FFF70EFF4FF4C0710348FFF7B7
:10039000A6FF01210248FFF7A2FF08BD001C014093
:1003A000000C014000BFFEE77047704729B1064AC4
:1003B00092690243044B9A6104E0034A92698243C2
:1003C000014B9A617047000000100240704710B561
:1003D00000F002F810BD00000CB500200190009064
:1003E0003248006840F480303049086000BF2F4830
:1003F000006800F4003000900198401C01900098C3
:1004000018B90198B0F5A06FF1D12848006810F430
:10041000003F02D00120009001E0002000900098F1
:10042000012842D12248006840F0100020490860AD
:100430000846006820F0030008600846006840F0A5
:10044000020008601948406818494860084640683A
:1004500048600846406840F480604860084640684C
:1004600020F47C1048600846406840F4E81048607A
:100470000846006840F08070086000BF0B480068C4
:1004800010F0007FFAD00948406820F003000749C7
:1004900048600846406840F00200486000BF0348DA
:1004A000406800F00C000828F9D10CBD0010024093
:1004B000002002407047000010B51348006840F06B
:1004C00001001149086008464068104908400E497B
:1004D0004860084600680E4908400B490860084615
:1004E000006820F4802008600846406820F4FE0080
:1004F00048604FF41F008860FFF769FF4FF000600D
:100500000449086010BD0000001002400000FFF820
:10051000FFFFF6FE08ED00E000BFFEE702E008C8BE
:10052000121F08C1002AFAD170477047002001E06D
:1005300001C1121F002AFBD170470000FFF70AFF1C
:1005400001210C48FFF7C9FEFFF7D2FE11E001219F
:100550000948FFF7DFFE01280BD101210548FFF70D
:10056000B3FEC0F10100C4B2224601210148FFF7E9
:10057000B8FEECE7000C0140000801408C050008C3
:0C05800000000020000400002C05000812
:0400000508000131BD
:00000001FF
