:020000040800F2
:1000000038050020450100085B0300085303000881
:10001000570300088D010008F50B000800000000E0
:10002000000000000000000000000000490500087A
:10003000E501000800000000110400081D0600088A
:100040005F0100085F0100085F0100085F01000810
:100050005F0100085F0100085F0100085F01000800
:100060005F0100085F0100085F0100085F010008F0
:100070005F0100085F0100085F0100085F010008E0
:100080005F0100085F0100085F0100085F010008D0
:100090005F0100085F0100085F0100085F010008C0
:1000A0005F0100085F0100085F0100085F010008B0
:1000B0005F010008310700085F0100085F010008C8
:1000C0005F0100085F0100085F0100085F01000890
:1000D0005F0100085F0100085F0100085F01000880
:1000E000E90100085F0100085F0100085F010008E6
:1000F0005F0100085F0100085F0100085F01000860
:100100005F0100085F0100085F0100085F0100084F
:100110005F0100085F0100085F0100085F0100083F
:100120005F0100085F0100085F0100085F0100082F
:10013000DFF80CD000F018F8004800476D0C0008FC
:10014000380500200648804706480047FEE7FEE7DE
:10015000FEE7FEE7FEE7FEE7FEE7FEE7FEE7FEE777
:100160009D06000831010008064C074D06E0E068D6
:1001700040F0010394E8070098471034AC42F6D3EE
:10018000FFF7DAFFDC0C0008FC0C000800BFFEE7FC
:1001900021B1026842F00102026004E002684FF6F9
:1001A000FE731A400260704710B50022026847F6DD
:1001B000F0739A430C6A8B6823430C6923434C69A0
:1001C00023438C692343CC6923434C6A23438C6AC1
:1001D00023431A430260CB6843600B6883604B681B
:1001E000C36010BD7047000010B54FF4005000F020
:1001F00013F840B10448006880F00100024908602B
:10020000481400F003F810BD0C0C014001490860CF
:100210007047000014040140014600200022074BF3
:100220001B6803EA0102054B14331B680B4202D022
:100230000AB1012000E000207047000000040140E6
:100240002DE9F0410246002500260020002300246D
:10025000002791F803C00CF00F0591F803C01CF0C3
:10026000100F03D091F802C04CEA0505B1F800C0A8
:100270001CF0FF0F31D0146800202BE04FF0010C70
:100280000CFA00F3B1F800C00CEA03069E4220D13C
:1002900083004FF00F0C0CFA03F7BC4305FA03FC84
:1002A0004CEA040491F803C0BCF1280F06D14FF0CA
:1002B000010C0CFA00FCC2F814C00AE091F803C06B
:1002C000BCF1480F05D14FF0010C0CFA00FCC2F84C
:1002D00010C0401C0828D1D31460B1F800C0BCF194
:1002E000FF0F34DD546800202EE000F1080C4FF0C1
:1002F000010808FA0CF3B1F800C00CEA03069E42AC
:1003000021D183004FF00F0C0CFA03F7BC4305FA20
:1003100003FC4CEA040491F803C0BCF1280F05D19A
:1003200000F1080C08FA0CF8C2F8148091F803C028
:10033000BCF1480F07D100F1080C4FF0010808FA92
:100340000CF8C2F81080401C0828CED35460BDE8D9
:10035000F08100BFFEE700BFFEE7704708B54FF42D
:10036000C06000F04BF81D208DF8000000208DF8D3
:10037000010002208DF8020001208DF8030068467C
:1003800000F002F808BD000070B5002100230F2224
:10039000C4780CB3164C246804F4E064C4F5E0643B
:1003A000210AC1F10403CA40447804FA03F18478B5
:1003B0001440214309010F4C0678A155047804F03C
:1003C0001F050124AC4005786D114FF0E02606EBC7
:1003D0008505C5F8004109E0047804F01F050124F3
:1003E000AC40054D0678761145F8264070BD0000FA
:1003F0000CED00E000E400E080E100E00249014390
:10040000024A1160704700000000FA050CED00E0A0
:100410007047000029B1064A52690243044B5A61F1
:1004200004E0034A52698243014B5A61704700005D
:100430000010024029B1064AD2690243044BDA6136
:1004400004E0034AD2698243014BDA61704700003D
:100450000010024029B1064A92690243044B9A6196
:1004600004E0034A92698243014B9A61704700009D
:100470000010024030B500210022002400232D4D41
:100480006D6805F00C0121B1042905D0082923D19C
:1004900005E0294D056022E0274D05601FE0254D50
:1004A0006D6805F47012234D6D6805F480340225E3
:1004B00005EB92421CB9214D554305600BE01D4DE3
:1004C0006D6815F4003F03D01C4D5543056002E0F4
:1004D000194D5543056002E0174D056000BF00BF90
:1004E000144D6D6805F0F0010909154D6B5C056848
:1004F000DD4045600F4D6D6805F4E061090A104D5F
:100500006B5C4568DD4085600A4D6D6805F460519F
:10051000C90A0B4D6B5C4568DD40C560054D6D68D3
:1005200005F44041890B074D6B5CC568B5FBF3F5DD
:10053000056130BD0010024000127A0000093D0044
:100540001400002024000020704710B500F002F8CD
:1005500010BD0000002100202E4A126842F48032B3
:100560002C4B1A6000BF2B4A126802F40030491C61
:1005700010B9B1F5A06FF6D1264A126812F4003F07
:1005800001D0012000E00020012842D1224A126857
:1005900042F01002204B1A601A46126822F0030241
:1005A0001A601A46126842F002021A60194A52682A
:1005B000184B5A601A4652685A601A46526842F4FA
:1005C00080625A601A46526822F47C125A601A46B7
:1005D000526842F4E8125A601A46126842F0807279
:1005E0001A6000BF0B4A126812F0007FFAD0094A65
:1005F000526822F00302074B5A601A46526842F0D2
:1006000002025A6000BF034A526802F00C02082A34
:10061000F9D17047001002400020024010B500F0F0
:10062000ABF910BD30B51A4800684FF47A72B0FBD0
:10063000F2F1B1F1807F01D301201DE021F07F4074
:10064000401E4FF0E022506150170F22002807DAB9
:1006500013071D0E0F4B00F00F04241F1D5503E060
:1006600013071C0E0C4B1C5400BF00204FF0E0225F
:10067000906107201061002008B100BFFEE74FF035
:10068000E020006920F001004FF0E021086130BD5A
:100690000000002018ED00E000E400E010B5134871
:1006A000006840F0010011490860084640681049A0
:1006B00008400E494860084600680E4908400B494A
:1006C00008600846006820F48020086008464068FA
:1006D00020F4FE0048604FF41F008860FFF735FFEC
:1006E0004FF000600449086010BD00000010024097
:1006F0000000FFF8FFFFF6FE08ED00E008B501215D
:100700000220FFF797FE01210820FFF7A3FE01203A
:10071000ADF8000018208DF8030003208DF80200CA
:1007200069460248FFF78CFD08BD0000000C01403F
:1007300010B500F02DFA10BD00B587B0FF20ADF860
:10074000140040F2CF70ADF810000020ADF8160094
:10075000ADF8120004A9144800F0BCF86020ADF810
:1007600000000120ADF802000020ADF806000220D4
:10077000ADF8080069460C4800F056F808210A4810
:1007800000F09EF80121084800F016F80121064803
:1007900000F021F801221146034800F039F8FFF774
:1007A000DDFD07B000BD00000004004010B5FFF7FC
:1007B000A5FFFFF7C1FF10BD21B1028842F0800202
:1007C000028004E002884FF67F731A40028070476F
:1007D000CA430282704721B1028842F001020280BE
:1007E00004E002884FF6FE731A400280704730B56D
:1007F0000246002000230024158A05EA010395899A
:1008000005EA010413B10CB1012000E0002030BD65
:1008100010B51AB183890B43838104E08389CC43EB
:10082000A4B22340838110BD70B5002400220023B0
:10083000058C4FF6FF6635400584028C8388848BD7
:100840004FF68F752C404FF6FC752C400D882C43CD
:100850004FF6FF552A400D892D0642EA15424D8874
:100860002D0642EA1542144DA84202D0134DA8426B
:100870001BD14FF2FF752A404D892D0642EA1542E1
:100880004FF6FF352A408D882D0642EA15424EF676
:10089000FF752B404DF6FF752B408D892D0543EAE2
:1008A0001543CD892D0543EA154383808483CD8884
:1008B0008587028470BD0000002C01400034014097
:1008C0000A460021818B4FF6F7731940114381834B
:1008D00070470000002202881D4B98420ED01D4B2D
:1008E00098420BD0B0F1804F08D01B4B984205D0F6
:1008F0001A4B984202D01A4B984204D14FF68F738C
:100900001A404B881A43174B984207D0164B98420F
:1009100004D04FF6FF431A40CB881A4302808B88DD
:1009200083850B8803850A4B98420BD0094B98426C
:1009300008D00E4B984205D00D4B984202D00D4B7B
:10094000984201D10B7A038601238382704700000D
:10095000002C014000340140000400400008004029
:10096000000C004000100040001400400040014016
:1009700000440140004801400448006820B1034899
:100980000068401E014908607047000028000020F0
:1009900000B585B0012144F20400FFF75BFD4FF480
:1009A0000070ADF8100003208DF8120018208DF8AB
:1009B000130004A91348FFF743FC4FF48060ADF81F
:1009C000100004208DF8130004A90E48FFF738FC2E
:1009D0004FF4E13000900020ADF80600ADF80400BF
:1009E000ADF80800ADF80C000C20ADF80A0069461F
:1009F000054800F05DF80121034800F033F805B028
:100A000000BD0000000801400038014000B58BB077
:100A100001210846FFF7FEFC0F4800900F480190A7
:100A2000102002900A20039000200490802005905E
:100A300000200690079008904FF480500990002005
:100A40000A9069460648FFF7AFFB01210448FFF70B
:100A50009FFB0BB000BD00000438014028010020BE
:100A60004400024021B1828942F40052828104E0B4
:100A700082894DF6FF731A408281704710B51AB112
:100A8000838A0B43838204E0838ACC43A4B223404D
:100A9000838210BD02460020B1F5007F00D100BF67
:100AA00013880B4201D0012000E0002070470000B5
:100AB0002DE9F04786B005460E460024A24600BF49
:100AC000A1460027B08900B100BF2F462C8A4CF602
:100AD000FF700440F08804432C82AC894EF6F3107A
:100AE0000440B08831890843718908430443AC81CC
:100AF000AC8A4FF6FF400440B0890443AC8201A8A1
:100B0000FFF7B8FC1F48874202D1DDF810A001E0D2
:100B1000DDF80CA0A88910F4004F08D00AEBCA0039
:100B200000EB0A1031684900B0FBF1F807E00AEB6E
:100B3000CA0000EB0A1031688900B0FBF1F86420AC
:100B4000B8FBF0F004012009642101FB1089A88999
:100B500010F4004F08D0322000EBC900B0FBF1F0D8
:100B600000F00700044308E0322000EB0910642184
:100B7000B0FBF1F000F00F0004432C8106B0BDE89B
:100B8000F087000000380140C1F3080282807047FE
:100B900010B501211348FFF72AFEE8B1124800788A
:100BA000401C11490870084600780A2814DB0F48D9
:100BB0000F490978405C0B493C3108800C480078AB
:100BC000401C0B49087008460078282801DB0020EB
:100BD000087000200449087001210248FFF7F8FD61
:100BE00010BD000000040040210100202C00002066
:100BF0002001002000BFFEE7014A024900F013B8BF
:100C0000490C00082401002002E008C8121F08C196
:100C1000002AFAD170477047002001E001C1121F7D
:100C2000002AFBD170472DE9F04104460F461646D5
:100C3000002503E03946B0476D1C641C207800286D
:100C4000F8D12846BDE8F08170B504460D46E1B202
:100C50000548FFF799FF00BF40210348FFF71AFF3F
:100C60000128F9D1204670BD00380140002404E07D
:100C700041200C490855601CC4B20A2CF8DBFFF770
:100C800087FEFFF7C3FE08A0FFF7B6FF0122802111
:100C90001148FFF7F3FEFFF7C5FCFFF787FD00BF24
:100CA000FEE70000280100200D0A20E6ACA2E8BF04
:100CB0008EE4BDBFE794A8E9878EE781AB20697316
:100CC0006F2053544D333220E5BC80E58F91E69D73
:100CD000BF200D0A0000000000380140FC0C000895
:100CE0000000002028010000080C0008240E000865
:100CF0002801002010040000180C000800A24A047B
:100D000000000000000000000102030406070809BB
:100D100000000000010203040102030406070809A1
:100D20000204060800000000010102020304060894
:100D30000A0E1319212C3B506B8FBFFFFFBF8F6B27
:100D4000503B2C2119130E0A08060403020201016C
:100D5000080740077807B007E7071E085308870809
:100D6000B908EA081909450970099809BD09E00997
:100D7000FF091C0A360A4C0A5F0A6F0A7C0A840AB9
:100D80008A0A8B0A8A0A840A7C0A6F0A5F0A4C0A5A
:100D9000360A1C0AFF09E009BD09980970094509CE
:100DA0001909EA08B908870853081E08E707B007B9
:100DB000780740070807CF0697065F062806F10563
:100DC000BC05880556052505F604CA049F0477046A
:100DD00052042F041004F303D903C303B003A00388
:100DE00093038B038503840385038B039303A00381
:100DF000B003C303D903F30310042F045204770490
:100E00009F04CA04F604250556058805BC05F105AE
:100E100028065F069706CF0607070707000000664B
:040E200000000000CE
:0400000508000131BD
:00000001FF
